00                                                   1130184958000140LIMA  OLIVEIRA CONTABILIDADE  UAIRES LIMA DA SILVASETOR SAUS QUADRA 03 C NUMERO 22 SALA 605         ASA SUL             70070934BRASILIA            DF 61 98292527                                                            2018051151         1               137074796000137                  *
10111923874000137000000000000000000000000000000000000VM DE LIMA  ME                          ST SIAS TR 7 N 100 SCE CONJUNTO A SN BOX 389390391SIA                 71208900BRASILIA            DF 61 32335398N4759899N000151500002100     000000000000000000000000000000000000000000000000000000000000                000000000000000000000000000000000000000000000    *
12111923874000137000000000000000000000000000000000000000000000000000000000000000000 000000000000000000000000000000                                000000000000000            000000000000000000000000000000000000000000000000000000000000000000000000000000000000000000000000000000000000000000000000000000000000000000000000000000000000000000000000000000000000      *
30111923874000137               204207197701304201801LENANDA MAYARA B OLIVEIRA                                                  000001000000000000130420183004199001231000000000000000000000000000000    000000000000000000000000000000000000000000000000000000000000                                                                                                  *
90999999999999999999999999999999999999999999999999999                                                                                                                                                                                                                                                                                                                  *
